{
  "_format": "hh-sol-artifact-1",
  "contractName": "TrustChain",
  "sourceName": "contracts/TrustChain.sol",
  "abi": [
    {
      "inputs": [
        {
          "internalType": "address",
          "name": "_rtkAddress",
          "type": "address"
        }
      ],
      "stateMutability": "nonpayable",
      "type": "constructor"
    },
    {
      "anonymous": false,
      "inputs": [
        {
          "indexed": true,
          "internalType": "uint256",
          "name": "loanId",
          "type": "uint256"
        },
        {
          "indexed": true,
          "internalType": "address",
          "name": "funder",
          "type": "address"
        },
        {
          "indexed": false,
          "internalType": "uint256",
          "name": "principal",
          "type": "uint256"
        }
      ],
      "name": "LoanFunded",
      "type": "event"
    },
    {
      "anonymous": false,
      "inputs": [
        {
          "indexed": true,
          "internalType": "uint256",
          "name": "loanId",
          "type": "uint256"
        },
        {
          "indexed": true,
          "internalType": "address",
          "name": "borrower",
          "type": "address"
        },
        {
          "indexed": false,
          "internalType": "uint256",
          "name": "totalRepaid",
          "type": "uint256"
        }
      ],
      "name": "LoanRepaid",
      "type": "event"
    },
    {
      "anonymous": false,
      "inputs": [
        {
          "indexed": true,
          "internalType": "uint256",
          "name": "loanId",
          "type": "uint256"
        },
        {
          "indexed": true,
          "internalType": "address",
          "name": "borrower",
          "type": "address"
        },
        {
          "indexed": false,
          "internalType": "uint256",
          "name": "principal",
          "type": "uint256"
        },
        {
          "indexed": false,
          "internalType": "uint256",
          "name": "interestRate",
          "type": "uint256"
        },
        {
          "indexed": false,
          "internalType": "string",
          "name": "purpose",
          "type": "string"
        }
      ],
      "name": "LoanRequested",
      "type": "event"
    },
    {
      "anonymous": false,
      "inputs": [
        {
          "indexed": true,
          "internalType": "address",
          "name": "endorser",
          "type": "address"
        },
        {
          "indexed": true,
          "internalType": "address",
          "name": "endorsee",
          "type": "address"
        },
        {
          "indexed": false,
          "internalType": "uint256",
          "name": "newScore",
          "type": "uint256"
        }
      ],
      "name": "UserEndorsed",
      "type": "event"
    },
    {
      "anonymous": false,
      "inputs": [
        {
          "indexed": true,
          "internalType": "address",
          "name": "user",
          "type": "address"
        },
        {
          "indexed": false,
          "internalType": "uint256",
          "name": "initialScore",
          "type": "uint256"
        }
      ],
      "name": "UserRegistered",
      "type": "event"
    },
    {
      "inputs": [],
      "name": "BASE_TRUST_SCORE",
      "outputs": [
        {
          "internalType": "uint256",
          "name": "",
          "type": "uint256"
        }
      ],
      "stateMutability": "view",
      "type": "function"
    },
    {
      "inputs": [],
      "name": "ENDORSE_SCORE_REWARD",
      "outputs": [
        {
          "internalType": "uint256",
          "name": "",
          "type": "uint256"
        }
      ],
      "stateMutability": "view",
      "type": "function"
    },
    {
      "inputs": [],
      "name": "FUND_SCORE_REWARD",
      "outputs": [
        {
          "internalType": "uint256",
          "name": "",
          "type": "uint256"
        }
      ],
      "stateMutability": "view",
      "type": "function"
    },
    {
      "inputs": [],
      "name": "REPAY_SCORE_REWARD",
      "outputs": [
        {
          "internalType": "uint256",
          "name": "",
          "type": "uint256"
        }
      ],
      "stateMutability": "view",
      "type": "function"
    },
    {
      "inputs": [
        {
          "internalType": "address",
          "name": "_user",
          "type": "address"
        }
      ],
      "name": "computeInterestRate",
      "outputs": [
        {
          "internalType": "uint256",
          "name": "",
          "type": "uint256"
        }
      ],
      "stateMutability": "view",
      "type": "function"
    },
    {
      "inputs": [
        {
          "internalType": "address",
          "name": "_endorsee",
          "type": "address"
        }
      ],
      "name": "endorseUser",
      "outputs": [],
      "stateMutability": "nonpayable",
      "type": "function"
    },
    {
      "inputs": [
        {
          "internalType": "uint256",
          "name": "_loanId",
          "type": "uint256"
        }
      ],
      "name": "fundLoan",
      "outputs": [],
      "stateMutability": "nonpayable",
      "type": "function"
    },
    {
      "inputs": [],
      "name": "getLoanCount",
      "outputs": [
        {
          "internalType": "uint256",
          "name": "",
          "type": "uint256"
        }
      ],
      "stateMutability": "view",
      "type": "function"
    },
    {
      "inputs": [
        {
          "internalType": "address",
          "name": "_user",
          "type": "address"
        }
      ],
      "name": "getTrustScore",
      "outputs": [
        {
          "internalType": "uint256",
          "name": "",
          "type": "uint256"
        }
      ],
      "stateMutability": "view",
      "type": "function"
    },
    {
      "inputs": [
        {
          "internalType": "address",
          "name": "",
          "type": "address"
        },
        {
          "internalType": "address",
          "name": "",
          "type": "address"
        }
      ],
      "name": "hasEndorsed",
      "outputs": [
        {
          "internalType": "bool",
          "name": "",
          "type": "bool"
        }
      ],
      "stateMutability": "view",
      "type": "function"
    },
    {
      "inputs": [],
      "name": "loanCounter",
      "outputs": [
        {
          "internalType": "uint256",
          "name": "",
          "type": "uint256"
        }
      ],
      "stateMutability": "view",
      "type": "function"
    },
    {
      "inputs": [
        {
          "internalType": "uint256",
          "name": "",
          "type": "uint256"
        }
      ],
      "name": "loans",
      "outputs": [
        {
          "internalType": "uint256",
          "name": "id",
          "type": "uint256"
        },
        {
          "internalType": "address",
          "name": "borrower",
          "type": "address"
        },
        {
          "internalType": "address",
          "name": "funder",
          "type": "address"
        },
        {
          "internalType": "uint256",
          "name": "principal",
          "type": "uint256"
        },
        {
          "internalType": "uint256",
          "name": "interestRate",
          "type": "uint256"
        },
        {
          "internalType": "uint256",
          "name": "totalOwed",
          "type": "uint256"
        },
        {
          "internalType": "string",
          "name": "purpose",
          "type": "string"
        },
        {
          "internalType": "enum TrustChain.LoanStatus",
          "name": "status",
          "type": "uint8"
        },
        {
          "internalType": "uint256",
          "name": "fundedAt",
          "type": "uint256"
        }
      ],
      "stateMutability": "view",
      "type": "function"
    },
    {
      "inputs": [],
      "name": "registerUser",
      "outputs": [],
      "stateMutability": "nonpayable",
      "type": "function"
    },
    {
      "inputs": [
        {
          "internalType": "uint256",
          "name": "_loanId",
          "type": "uint256"
        }
      ],
      "name": "repayLoan",
      "outputs": [],
      "stateMutability": "nonpayable",
      "type": "function"
    },
    {
      "inputs": [
        {
          "internalType": "uint256",
          "name": "_principal",
          "type": "uint256"
        },
        {
          "internalType": "string",
          "name": "_purpose",
          "type": "string"
        }
      ],
      "name": "requestLoan",
      "outputs": [],
      "stateMutability": "nonpayable",
      "type": "function"
    },
    {
      "inputs": [],
      "name": "rtkToken",
      "outputs": [
        {
          "internalType": "contract IERC20",
          "name": "",
          "type": "address"
        }
      ],
      "stateMutability": "view",
      "type": "function"
    },
    {
      "inputs": [
        {
          "internalType": "address",
          "name": "",
          "type": "address"
        }
      ],
      "name": "users",
      "outputs": [
        {
          "internalType": "bool",
          "name": "isRegistered",
          "type": "bool"
        },
        {
          "internalType": "uint256",
          "name": "trustScore",
          "type": "uint256"
        },
        {
          "internalType": "uint256",
          "name": "loansRepaid",
          "type": "uint256"
        },
        {
          "internalType": "uint256",
          "name": "loansDefaulted",
          "type": "uint256"
        }
      ],
      "stateMutability": "view",
      "type": "function"
    }
  ],
  "bytecode": "0x60806040523480156200001157600080fd5b50604051620029a1380380620029a183398181016040528101906200003791906200015b565b600073ffffffffffffffffffffffffffffffffffffffff168173ffffffffffffffffffffffffffffffffffffffff1603620000a9576040517f08c379a0000000000000000000000000000000000000000000000000000000008152600401620000a09062000214565b60405180910390fd5b80600460006101000a81548173ffffffffffffffffffffffffffffffffffffffff021916908373ffffffffffffffffffffffffffffffffffffffff1602179055505062000236565b600080fd5b600073ffffffffffffffffffffffffffffffffffffffff82169050919050565b60006200012382620000f6565b9050919050565b620001358162000116565b81146200014157600080fd5b50565b60008151905062000155816200012a565b92915050565b600060208284031215620001745762000173620000f1565b5b6000620001848482850162000144565b91505092915050565b600082825260208201905092915050565b7f5472757374436861696e3a20696e76616c696420746f6b656e2061646472657360008201527f7300000000000000000000000000000000000000000000000000000000000000602082015250565b6000620001fc6021836200018d565b915062000209826200019e565b604082019050919050565b600060208201905081810360008301526200022f81620001ed565b9050919050565b61275b80620002466000396000f3fe608060405234801561001057600080fd5b506004361061010b5760003560e01c80636c79e167116100a2578063a87430ba11610071578063a87430ba14610294578063ab7b1c89146102c7578063ccb86874146102e3578063e1ec3c6814610301578063efaea56f146103395761010b565b80636c79e1671461020e578063846b909a1461022a57806391612a3214610246578063a3fccc02146102645761010b565b806339a811ee116100de57806339a811ee1461019a5780634d3820eb146101b657806352196812146101c05780635e09eea1146101de5761010b565b80631edd910d1461011057806328ebd87e1461014057806334d9289e1461015e5780633620ea931461017c575b600080fd5b61012a60048036038101906101259190611751565b610357565b60405161013791906117ac565b60405180910390f35b610148610386565b60405161015591906117e0565b60405180910390f35b61016661038b565b60405161017391906117e0565b60405180910390f35b610184610391565b604051610191919061185a565b60405180910390f35b6101b460048036038101906101af9190611875565b6103b7565b005b6101be6107a1565b005b6101c8610927565b6040516101d591906117e0565b60405180910390f35b6101f860048036038101906101f39190611875565b610931565b60405161020591906117e0565b60405180910390f35b61022860048036038101906102239190611933565b61097c565b005b610244600480360381019061023f9190611993565b610d2a565b005b61024e61110b565b60405161025b91906117e0565b60405180910390f35b61027e60048036038101906102799190611875565b611110565b60405161028b91906117e0565b60405180910390f35b6102ae60048036038101906102a99190611875565b611163565b6040516102be94939291906119c0565b60405180910390f35b6102e160048036038101906102dc9190611993565b6111a0565b005b6102eb61158e565b6040516102f891906117e0565b60405180910390f35b61031b60048036038101906103169190611993565b611593565b60405161033099989796959493929190611b1b565b60405180910390f35b6103416116b6565b60405161034e91906117e0565b60405180910390f35b60026020528160005260406000206020528060005260406000206000915091509054906101000a900460ff1681565b600581565b60035481565b600460009054906101000a900473ffffffffffffffffffffffffffffffffffffffff1681565b6000803373ffffffffffffffffffffffffffffffffffffffff1673ffffffffffffffffffffffffffffffffffffffff16815260200190815260200160002060000160009054906101000a900460ff16610445576040517f08c379a000000000000000000000000000000000000000000000000000000000815260040161043c90611c21565b60405180910390fd5b6000808273ffffffffffffffffffffffffffffffffffffffff1673ffffffffffffffffffffffffffffffffffffffff16815260200190815260200160002060000160009054906101000a900460ff166104d3576040517f08c379a00000000000000000000000000000000000000000000000000000000081526004016104ca90611cb3565b60405180910390fd5b8073ffffffffffffffffffffffffffffffffffffffff163373ffffffffffffffffffffffffffffffffffffffff1603610541576040517f08c379a000000000000000000000000000000000000000000000000000000000815260040161053890611d45565b60405180910390fd5b600260003373ffffffffffffffffffffffffffffffffffffffff1673ffffffffffffffffffffffffffffffffffffffff16815260200190815260200160002060008273ffffffffffffffffffffffffffffffffffffffff1673ffffffffffffffffffffffffffffffffffffffff16815260200190815260200160002060009054906101000a900460ff161561060b576040517f08c379a000000000000000000000000000000000000000000000000000000000815260040161060290611db1565b60405180910390fd5b6001600260003373ffffffffffffffffffffffffffffffffffffffff1673ffffffffffffffffffffffffffffffffffffffff16815260200190815260200160002060008373ffffffffffffffffffffffffffffffffffffffff1673ffffffffffffffffffffffffffffffffffffffff16815260200190815260200160002060006101000a81548160ff02191690831515021790555060056000808373ffffffffffffffffffffffffffffffffffffffff1673ffffffffffffffffffffffffffffffffffffffff16815260200190815260200160002060010160008282546106f29190611e00565b925050819055508073ffffffffffffffffffffffffffffffffffffffff163373ffffffffffffffffffffffffffffffffffffffff167ec908494d3f682d49ae1ea44ab67b0149b97bac6bf2d8dde60789afd8105cd66000808573ffffffffffffffffffffffffffffffffffffffff1673ffffffffffffffffffffffffffffffffffffffff1681526020019081526020016000206001015460405161079691906117e0565b60405180910390a350565b6000803373ffffffffffffffffffffffffffffffffffffffff1673ffffffffffffffffffffffffffffffffffffffff16815260200190815260200160002060000160009054906101000a900460ff1615610830576040517f08c379a000000000000000000000000000000000000000000000000000000000815260040161082790611e80565b60405180910390fd5b6040518060800160405280600115158152602001603281526020016000815260200160008152506000803373ffffffffffffffffffffffffffffffffffffffff1673ffffffffffffffffffffffffffffffffffffffff16815260200190815260200160002060008201518160000160006101000a81548160ff0219169083151502179055506020820151816001015560408201518160020155606082015181600301559050503373ffffffffffffffffffffffffffffffffffffffff167fe29d35093005f4d575e1003753426b57a7f64378ba73332eef9c6ccc2b8decd6603260405161091d91906117e0565b60405180910390a2565b6000600354905090565b60008060008373ffffffffffffffffffffffffffffffffffffffff1673ffffffffffffffffffffffffffffffffffffffff168152602001908152602001600020600101549050919050565b6000803373ffffffffffffffffffffffffffffffffffffffff1673ffffffffffffffffffffffffffffffffffffffff16815260200190815260200160002060000160009054906101000a900460ff16610a0a576040517f08c379a0000000000000000000000000000000000000000000000000000000008152600401610a0190611c21565b60405180910390fd5b60008311610a4d576040517f08c379a0000000000000000000000000000000000000000000000000000000008152600401610a4490611f12565b60405180910390fd5b60008060003373ffffffffffffffffffffffffffffffffffffffff1673ffffffffffffffffffffffffffffffffffffffff1681526020019081526020016000206001015490506000610a9e826116bb565b9050600060648287610ab09190611f32565b610aba9190611fa3565b905060008187610aca9190611e00565b905060405180610120016040528060035481526020013373ffffffffffffffffffffffffffffffffffffffff168152602001600073ffffffffffffffffffffffffffffffffffffffff16815260200188815260200184815260200182815260200187878080601f016020809104026020016040519081016040528093929190818152602001838380828437600081840152601f19601f82011690508083019250505050505050815260200160006002811115610b8957610b88611aa4565b5b815260200160008152506001600060035481526020019081526020016000206000820151816000015560208201518160010160006101000a81548173ffffffffffffffffffffffffffffffffffffffff021916908373ffffffffffffffffffffffffffffffffffffffff16021790555060408201518160020160006101000a81548173ffffffffffffffffffffffffffffffffffffffff021916908373ffffffffffffffffffffffffffffffffffffffff160217905550606082015181600301556080820151816004015560a0820151816005015560c0820151816006019081610c739190612205565b5060e08201518160070160006101000a81548160ff02191690836002811115610c9f57610c9e611aa4565b5b021790555061010082015181600801559050503373ffffffffffffffffffffffffffffffffffffffff166003547f7b6ba427d6069eeb2637d7d2bb04f521157dd7df5da9e39b8bf1a2e7100c1b0389868a8a604051610d019493929190612313565b60405180910390a360036000815480929190610d1c90612353565b919050555050505050505050565b6000803373ffffffffffffffffffffffffffffffffffffffff1673ffffffffffffffffffffffffffffffffffffffff16815260200190815260200160002060000160009054906101000a900460ff16610db8576040517f08c379a0000000000000000000000000000000000000000000000000000000008152600401610daf90611c21565b60405180910390fd5b600060016000838152602001908152602001600020905060006002811115610de357610de2611aa4565b5b8160070160009054906101000a900460ff166002811115610e0757610e06611aa4565b5b14610e47576040517f08c379a0000000000000000000000000000000000000000000000000000000008152600401610e3e906123e7565b60405180910390fd5b8060010160009054906101000a900473ffffffffffffffffffffffffffffffffffffffff1673ffffffffffffffffffffffffffffffffffffffff163373ffffffffffffffffffffffffffffffffffffffff1603610ed9576040517f08c379a0000000000000000000000000000000000000000000000000000000008152600401610ed090612453565b60405180910390fd5b60018160070160006101000a81548160ff02191690836002811115610f0157610f00611aa4565b5b0217905550338160020160006101000a81548173ffffffffffffffffffffffffffffffffffffffff021916908373ffffffffffffffffffffffffffffffffffffffff160217905550428160080181905550600460009054906101000a900473ffffffffffffffffffffffffffffffffffffffff1673ffffffffffffffffffffffffffffffffffffffff166323b872dd338360010160009054906101000a900473ffffffffffffffffffffffffffffffffffffffff1684600301546040518463ffffffff1660e01b8152600401610fd993929190612473565b6020604051808303816000875af1158015610ff8573d6000803e3d6000fd5b505050506040513d601f19601f8201168201806040525081019061101c91906124d6565b61105b576040517f08c379a000000000000000000000000000000000000000000000000000000000815260040161105290612575565b60405180910390fd5b60026000803373ffffffffffffffffffffffffffffffffffffffff1673ffffffffffffffffffffffffffffffffffffffff16815260200190815260200160002060010160008282546110ad9190611e00565b925050819055503373ffffffffffffffffffffffffffffffffffffffff16827fbd7ef6c6281278f6c8ac4ae9ef2f205b52425813c288dd47c377cb6b59c5076e83600301546040516110ff91906117e0565b60405180910390a35050565b600a81565b600061115c6000808473ffffffffffffffffffffffffffffffffffffffff1673ffffffffffffffffffffffffffffffffffffffff168152602001908152602001600020600101546116bb565b9050919050565b60006020528060005260406000206000915090508060000160009054906101000a900460ff16908060010154908060020154908060030154905084565b6000803373ffffffffffffffffffffffffffffffffffffffff1673ffffffffffffffffffffffffffffffffffffffff16815260200190815260200160002060000160009054906101000a900460ff1661122e576040517f08c379a000000000000000000000000000000000000000000000000000000000815260040161122590611c21565b60405180910390fd5b60006001600083815260200190815260200160002090506001600281111561125957611258611aa4565b5b8160070160009054906101000a900460ff16600281111561127d5761127c611aa4565b5b146112bd576040517f08c379a00000000000000000000000000000000000000000000000000000000081526004016112b4906125e1565b60405180910390fd5b8060010160009054906101000a900473ffffffffffffffffffffffffffffffffffffffff1673ffffffffffffffffffffffffffffffffffffffff163373ffffffffffffffffffffffffffffffffffffffff161461134f576040517f08c379a000000000000000000000000000000000000000000000000000000000815260040161134690612673565b60405180910390fd5b60028160070160006101000a81548160ff0219169083600281111561137757611376611aa4565b5b0217905550600460009054906101000a900473ffffffffffffffffffffffffffffffffffffffff1673ffffffffffffffffffffffffffffffffffffffff166323b872dd338360020160009054906101000a900473ffffffffffffffffffffffffffffffffffffffff1684600501546040518463ffffffff1660e01b815260040161140393929190612473565b6020604051808303816000875af1158015611422573d6000803e3d6000fd5b505050506040513d601f19601f8201168201806040525081019061144691906124d6565b611485576040517f08c379a000000000000000000000000000000000000000000000000000000000815260040161147c90612705565b60405180910390fd5b600a6000803373ffffffffffffffffffffffffffffffffffffffff1673ffffffffffffffffffffffffffffffffffffffff16815260200190815260200160002060010160008282546114d79190611e00565b9250508190555060016000803373ffffffffffffffffffffffffffffffffffffffff1673ffffffffffffffffffffffffffffffffffffffff16815260200190815260200160002060020160008282546115309190611e00565b925050819055503373ffffffffffffffffffffffffffffffffffffffff16827f512d3e65b3e58c2187bb1872aa435dba5bd09c1c03823ba56ab70aac411e4a21836005015460405161158291906117e0565b60405180910390a35050565b603281565b60016020528060005260406000206000915090508060000154908060010160009054906101000a900473ffffffffffffffffffffffffffffffffffffffff16908060020160009054906101000a900473ffffffffffffffffffffffffffffffffffffffff169080600301549080600401549080600501549080600601805461161a90612032565b80601f016020809104026020016040519081016040528092919081815260200182805461164690612032565b80156116935780601f1061166857610100808354040283529160200191611693565b820191906000526020600020905b81548152906001019060200180831161167657829003601f168201915b5050505050908060070160009054906101000a900460ff16908060080154905089565b600281565b6000605082106116ce57600c90506116e4565b603c82106116df57601090506116e4565b601490505b919050565b600080fd5b600080fd5b600073ffffffffffffffffffffffffffffffffffffffff82169050919050565b600061171e826116f3565b9050919050565b61172e81611713565b811461173957600080fd5b50565b60008135905061174b81611725565b92915050565b60008060408385031215611768576117676116e9565b5b60006117768582860161173c565b92505060206117878582860161173c565b9150509250929050565b60008115159050919050565b6117a681611791565b82525050565b60006020820190506117c1600083018461179d565b92915050565b6000819050919050565b6117da816117c7565b82525050565b60006020820190506117f560008301846117d1565b92915050565b6000819050919050565b600061182061181b611816846116f3565b6117fb565b6116f3565b9050919050565b600061183282611805565b9050919050565b600061184482611827565b9050919050565b61185481611839565b82525050565b600060208201905061186f600083018461184b565b92915050565b60006020828403121561188b5761188a6116e9565b5b60006118998482850161173c565b91505092915050565b6118ab816117c7565b81146118b657600080fd5b50565b6000813590506118c8816118a2565b92915050565b600080fd5b600080fd5b600080fd5b60008083601f8401126118f3576118f26118ce565b5b8235905067ffffffffffffffff8111156119105761190f6118d3565b5b60208301915083600182028301111561192c5761192b6118d8565b5b9250929050565b60008060006040848603121561194c5761194b6116e9565b5b600061195a868287016118b9565b935050602084013567ffffffffffffffff81111561197b5761197a6116ee565b5b611987868287016118dd565b92509250509250925092565b6000602082840312156119a9576119a86116e9565b5b60006119b7848285016118b9565b91505092915050565b60006080820190506119d5600083018761179d565b6119e260208301866117d1565b6119ef60408301856117d1565b6119fc60608301846117d1565b95945050505050565b611a0e81611713565b82525050565b600081519050919050565b600082825260208201905092915050565b60005b83811015611a4e578082015181840152602081019050611a33565b60008484015250505050565b6000601f19601f8301169050919050565b6000611a7682611a14565b611a808185611a1f565b9350611a90818560208601611a30565b611a9981611a5a565b840191505092915050565b7f4e487b7100000000000000000000000000000000000000000000000000000000600052602160045260246000fd5b60038110611ae457611ae3611aa4565b5b50565b6000819050611af582611ad3565b919050565b6000611b0582611ae7565b9050919050565b611b1581611afa565b82525050565b600061012082019050611b31600083018c6117d1565b611b3e602083018b611a05565b611b4b604083018a611a05565b611b5860608301896117d1565b611b6560808301886117d1565b611b7260a08301876117d1565b81810360c0830152611b848186611a6b565b9050611b9360e0830185611b0c565b611ba16101008301846117d1565b9a9950505050505050505050565b7f5472757374436861696e3a2063616c6c6572206e6f742072656769737465726560008201527f6400000000000000000000000000000000000000000000000000000000000000602082015250565b6000611c0b602183611a1f565b9150611c1682611baf565b604082019050919050565b60006020820190508181036000830152611c3a81611bfe565b9050919050565b7f5472757374436861696e3a20656e646f72736565206e6f74207265676973746560008201527f7265640000000000000000000000000000000000000000000000000000000000602082015250565b6000611c9d602383611a1f565b9150611ca882611c41565b604082019050919050565b60006020820190508181036000830152611ccc81611c90565b9050919050565b7f5472757374436861696e3a2063616e6e6f7420656e646f72736520796f75727360008201527f656c660000000000000000000000000000000000000000000000000000000000602082015250565b6000611d2f602383611a1f565b9150611d3a82611cd3565b604082019050919050565b60006020820190508181036000830152611d5e81611d22565b9050919050565b7f5472757374436861696e3a20616c726561647920656e646f7273656400000000600082015250565b6000611d9b601c83611a1f565b9150611da682611d65565b602082019050919050565b60006020820190508181036000830152611dca81611d8e565b9050919050565b7f4e487b7100000000000000000000000000000000000000000000000000000000600052601160045260246000fd5b6000611e0b826117c7565b9150611e16836117c7565b9250828201905080821115611e2e57611e2d611dd1565b5b92915050565b7f5472757374436861696e3a20616c726561647920726567697374657265640000600082015250565b6000611e6a601e83611a1f565b9150611e7582611e34565b602082019050919050565b60006020820190508181036000830152611e9981611e5d565b9050919050565b7f5472757374436861696e3a207072696e636970616c206d757374206265203e2060008201527f3000000000000000000000000000000000000000000000000000000000000000602082015250565b6000611efc602183611a1f565b9150611f0782611ea0565b604082019050919050565b60006020820190508181036000830152611f2b81611eef565b9050919050565b6000611f3d826117c7565b9150611f48836117c7565b9250828202611f56816117c7565b91508282048414831517611f6d57611f6c611dd1565b5b5092915050565b7f4e487b7100000000000000000000000000000000000000000000000000000000600052601260045260246000fd5b6000611fae826117c7565b9150611fb9836117c7565b925082611fc957611fc8611f74565b5b828204905092915050565b7f4e487b7100000000000000000000000000000000000000000000000000000000600052604160045260246000fd5b7f4e487b7100000000000000000000000000000000000000000000000000000000600052602260045260246000fd5b6000600282049050600182168061204a57607f821691505b60208210810361205d5761205c612003565b5b50919050565b60008190508160005260206000209050919050565b60006020601f8301049050919050565b600082821b905092915050565b6000600883026120c57fffffffffffffffffffffffffffffffffffffffffffffffffffffffffffffffff82612088565b6120cf8683612088565b95508019841693508086168417925050509392505050565b60006121026120fd6120f8846117c7565b6117fb565b6117c7565b9050919050565b6000819050919050565b61211c836120e7565b61213061212882612109565b848454612095565b825550505050565b600090565b612145612138565b612150818484612113565b505050565b5b818110156121745761216960008261213d565b600181019050612156565b5050565b601f8211156121b95761218a81612063565b61219384612078565b810160208510156121a2578190505b6121b66121ae85612078565b830182612155565b50505b505050565b600082821c905092915050565b60006121dc600019846008026121be565b1980831691505092915050565b60006121f583836121cb565b9150826002028217905092915050565b61220e82611a14565b67ffffffffffffffff81111561222757612226611fd4565b5b6122318254612032565b61223c828285612178565b600060209050601f83116001811461226f576000841561225d578287015190505b61226785826121e9565b8655506122cf565b601f19841661227d86612063565b60005b828110156122a557848901518255600182019150602085019450602081019050612280565b868310156122c257848901516122be601f8916826121cb565b8355505b6001600288020188555050505b505050505050565b82818337600083830152505050565b60006122f28385611a1f565b93506122ff8385846122d7565b61230883611a5a565b840190509392505050565b600060608201905061232860008301876117d1565b61233560208301866117d1565b81810360408301526123488184866122e6565b905095945050505050565b600061235e826117c7565b91507fffffffffffffffffffffffffffffffffffffffffffffffffffffffffffffffff82036123905761238f611dd1565b5b600182019050919050565b7f5472757374436861696e3a206c6f616e206e6f7420617661696c61626c650000600082015250565b60006123d1601e83611a1f565b91506123dc8261239b565b602082019050919050565b60006020820190508181036000830152612400816123c4565b9050919050565b7f5472757374436861696e3a2063616e6e6f742066756e64206f776e206c6f616e600082015250565b600061243d602083611a1f565b915061244882612407565b602082019050919050565b6000602082019050818103600083015261246c81612430565b9050919050565b60006060820190506124886000830186611a05565b6124956020830185611a05565b6124a260408301846117d1565b949350505050565b6124b381611791565b81146124be57600080fd5b50565b6000815190506124d0816124aa565b92915050565b6000602082840312156124ec576124eb6116e9565b5b60006124fa848285016124c1565b91505092915050565b7f5472757374436861696e3a2052544b2066756e64696e67207472616e7366657260008201527f206661696c656400000000000000000000000000000000000000000000000000602082015250565b600061255f602783611a1f565b915061256a82612503565b604082019050919050565b6000602082019050818103600083015261258e81612552565b9050919050565b7f5472757374436861696e3a206c6f616e206e6f74206163746976650000000000600082015250565b60006125cb601b83611a1f565b91506125d682612595565b602082019050919050565b600060208201905081810360008301526125fa816125be565b9050919050565b7f5472757374436861696e3a206f6e6c7920626f72726f7765722063616e20726560008201527f7061790000000000000000000000000000000000000000000000000000000000602082015250565b600061265d602383611a1f565b915061266882612601565b604082019050919050565b6000602082019050818103600083015261268c81612650565b9050919050565b7f5472757374436861696e3a2052544b2072657061796d656e74207472616e736660008201527f6572206661696c65640000000000000000000000000000000000000000000000602082015250565b60006126ef602983611a1f565b91506126fa82612693565b604082019050919050565b6000602082019050818103600083015261271e816126e2565b905091905056fea2646970667358221220b2c618fbcb4c2922ea6d70fe3b115f5f818a80d49b86edb9fc56807df24ff45064736f6c63430008180033",
  "linkReferences": {},
  "deployedLinkReferences": {}
}